:020000040000FA
:100000000C948D030C94B5030C94B5030C945F19F8
:100010000C945F190C945F190C94D7190C94B503C8
:100020000C94B5030C94B5030C94B5030C94B50370
:100030000C94B5030C94B5030C94B5030C94B50360
:100040000C949E170C94B5030C940E180C94E8179E
:100050000C94B5030C94B5030C94B5030C94B50340
:100060000C9440180C94B503084AD73B3BCE016E64
:1000700084BCBFFDC12F3D6C74319ABD56833DDAFF
:100080003D00C77F11BED9E4BB4C3E916BAAAABE0E
:10009000000000803F05A84CCDB2D44EB93836A937
:1000A000020C50B9918688083CA6AAAA2ABE000074
:1000B00000803F08000000BE922449123EABAAAA6D
:1000C0002ABECDCCCC4C3E00000080BEABAAAAAA72
:1000D0003E00000000BF000000803F000000000064
:1000E000084178D3BB4387D1133D190E3CC3BD42B1
:1000F00082AD2B3E68EC8276BED98FE1A93E4C8062
:10010000EFFFBE01C4FF7F3F000000000000004081
:100110007A10F35A00A0724E18090010A5D4E80016
:1001200000E87648170000E40B54020000CA9A3B2E
:10013000000000E1F50500008096980000004042B4
:100140000F000000A0860100000010270000000042
:10015000E803000000006400000000000A00000046
:1001600000000100000000002C76D888DC674F08F2
:1001700023DFC1DFAE59E1B1B796E5E3E453C63AF8
:10018000E651997696E8E6C28426EB898C9B62ED6F
:10019000407C6FFCEFBC9C9F40F2BAA56FA5F49029
:1001A000055A2AF75C936B6CF9676DC11BFCE0E4A0
:1001B0000D47FEF520E6B500D0ED902E03009435F6
:1001C00077050080841E080000204E0A000000C849
:1001D0000C333333330F986E12831141EF8D21149A
:1001E000893BE65516CFFEE6DB18D1844B381BF76A
:1001F0007C1D901DA4BBE424203284725E22810009
:10020000C9F124ECA1E53D2720D09141D0995400BB
:10021000D09F414DD0AF54D0AC2000207365632EE9
:1002200000206D696E2E00D09741D0944550D09635
:100230004B412000484520D0A343D09F45D0A8453E
:100240004820475052532000484520D09F4FD09B14
:1002500048D0ABD099204F544245542000484554D3
:1002600020D09F50D098454D4120475052532000F8
:1002700053494D393030203E203136392063D0B8D3
:10028000D0BC0041542B485454505445524D004169
:10029000542B485454505245414400D096D0944574
:1002A0004D204F544245542035207365630041541E
:1002B0002B48545450414354494F4E3D30002C2557
:1002C0003232636F6C6F722532323A253232626C91
:1002D00075652532327D7D22002C2532326C6F6EA1
:1002E0002532323A00266E756D3D35266374726C88
:1002F0003D32303326736A736F6E3D7B2532327424
:10030000726B70742532323A7B2532326C617425FF
:1003100032323A0041542B48545450504152413DDE
:100320002255524C222C22687474703A2F2F6B770E
:10033000696E666C61742E72752F53746174652FCB
:100340003F6379636C653D0041542B4854545050D1
:100350004152413D22434944222C310041542B4813
:10036000545450494E49540041542B534150425229
:100370003D302C310041542B53415042523D312CE1
:10038000310041542B53415042523D332C312C22E9
:1003900041504E222C22696E7465726E6574220083
:1003A00041542B53415042523D332C312C22436F48
:1003B0006E74797065222C224750525322004B4FA5
:1003C0004F50D094D098484154D0AB203D3D3D3D56
:1003D0003E002D2D2D2D3E204B4F4F50D094D098C8
:1003E000484154D0AB002020202020202020202075
:1003F0002020202020200048455420D09441484807
:10040000D0AB5820D0944154D0AB20004845542064
:10041000584FD09441204250454D4548D09800480F
:1004200045542043D098D0934841D09B4120475019
:10043000532000484520D098D094455420D09B4F5D
:100440004B41D0A6D098D0AF2000432C763D00740D
:100450003D007E002E006D2E003E35306D002C00DC
:100460002C20005341543D00206D2E003E31303091
:1004700030003A0030002D00560064422C2000204D
:1004800000475052532000D09741D0944550D09609
:100490004B41203E3939206D696E0041542B435346
:1004A000510041542B43424300424BD09BD0AED02D
:1004B000A741454D2053494D39303020004154006B
:1004C000454354D0AC2041542D4B4F4D4148D0941E
:1004D000D0AB20004845205450414343D09850D0E1
:1004E000A3454D20415400434D4F5450D0984D20CA
:1004F000D09F414DD0AF54D0AC202000484520D0F3
:1005000093D09BD0AFD094D0984D20D09F414DD068
:10051000AF54D0AC00D09F504F43D09BD0A3D0A8B5
:10052000D0984241454D2047505300D098D0944533
:100530005420D09FD0A343544FD09920D0A6D09818
:100540004BD09B0000000000240027002A00000080
:100550000008000201000003040700000000000082
:10056000000000000F110F050900000012151D15F5
:10057000120000000E1107110E00000010101E11D5
:100580001E00000011111D131D00000018080E09A7
:100590000E000000151515151F0100001515151585
:1005A0001F00000011110F010100000012121212B1
:1005B0001F010000040E150E040000001F040404B7
:1005C000040000001F1111111100000011111F1172
:1005D00011000000111B1511110000000709090985
:1005E000110000001214181412000A041113151936
:1005F0001100000011131519110000000E11061151
:100600000E00000015150E1515000A000E111F1022
:100610000F000000060A0A0A1F1100001E10101029
:10062000100000001E111E111E00030C101E1111DF
:100630000E000F11110F050911001215151D1515CA
:1006400012000E11010701110E001010101E1111E1
:100650001E001111111D13131D001808080E0909A1
:100660000E001111111515151F0111111115151578
:100670001F001111110F01010100121212121212AA
:100680001F01040E1515150E04001111110F011193
:100690000E001F1111111111110007090909090993
:1006A000110015111113151911001111111315193C
:1006B00011000E11010601110E001515150E15156C
:1006C0001500060A0A0A0A0A1F111F10101010103E
:1006D00010001F10101E11111E000000000023004A
:1006E0002600290000000000250028002B0004043B
:1006F00004040404040402020202020203030303CA
:1007000003030102040810204080010204081020A5
:10071000010204081020FB19BB2711241FBECFEFD4
:10072000D8E0DEBFCDBF11E0A0E0B1E0E4E6F4E642
:1007300002C005900D92A43EB107D9F726E0A4EEC1
:10074000B1E001C01D92A738B207E1F713E0CCE891
:10075000D3E004C02197FE010E94B730CB38D10707
:10076000C9F70E94661B0C9425320C94000090E09F
:10077000FC01E25BFA4F2491FC01EE5FF84F3491EB
:10078000FC01E251F94FE491EE23C9F0222339F044
:10079000233001F1A8F4213019F1223029F1F0E0E1
:1007A000EE0FFF1FEC51F94FA591B4918FB7F8945C
:1007B000EC91611126C030953E233C938FBF089584
:1007C0002730A9F02830C9F0243049F78091800003
:1007D0008F7D03C0809180008F7780938000DFCF72
:1007E00084B58F7784BDDBCF84B58F7DFBCF8091BF
:1007F000B0008F778093B000D2CF8091B0008F7D12
:10080000F9CF3E2BDACFCF93DF9390E0FC01EE5F80
:10081000F84F24918251994FFC0184918823D1F0A3
:1008200090E0880F991FFC01EC5BFA4FA591B49101
:10083000FC01EC51F94FC591D49161110EC09FB7E5
:10084000F8948C91E22FE0958E238C932881E223FB
:10085000E8839FBFDF91CF9108958FB7F894EC9113
:10086000E22BEC938FBFF6CF0F931F93CF93DF93C1
:10087000EC01162F042F1B821A8288EE93E0A0E071
:10088000B0E08C839D83AE83BF8382E691E0998341
:1008900088831F8A1E8A198E188E1B8E1A8E1D8EB3
:1008A0001C8E6E8D6E7F6D7F6E8F6695617081E0A0
:1008B0006827842F0E94B70361E0802F0E94030401
:1008C000802F90E0FC01EE5FF84FE491E88BFC0193
:1008D000E251F94FE491F0E0EE0FFF1FEC51F94FB8
:1008E000859194919A8B898B60E0812F0E940304FB
:1008F0008E8D81FD04C061E0812F0E94B7031C87AB
:10090000812F90E0FC01EE5FF84FE491ED87FC0150
:10091000E251F94FE491F0E0EE0FFF1FE652F94F7C
:10092000859194919F878E87DF91CF911F910F9131
:1009300008953FB7F89480913A0390913B03A091BA
:100940003C03B0913D0326B5A89B05C02F3F19F08D
:100950000196A11DB11D3FBFBA2FA92F982F88273F
:10096000BC01CD01620F711D811D911D42E0660F1A
:10097000771F881F991F4A95D1F708958F929F92EC
:10098000AF92BF92CF92DF92EF92FF924B015C0148
:100990000E9499046B017C010E9499046C197D09E5
:1009A0008E099F09683E734081059105A8F321E0F7
:1009B000821A9108A108B10888EEC80E83E0D81EFB
:1009C000E11CF11C81149104A104B10429F7FF90EA
:1009D000EF90DF90CF90BF90AF909F908F90089551
:1009E0002FB7F894609136037091370380913803E4
:1009F000909139032FBF0895AF92BF92CF92DF92AB
:100A0000EF92FF920F931F93CF93DF936C017B01C3
:100A10008B01040F151FEB015E01AE18BF08C01754
:100A2000D10759F06991D601ED91FC910190F081C7
:100A3000E02DC6010995892B79F7C501DF91CF918A
:100A40001F910F91FF90EF90DF90CF90BF90AF90EC
:100A50000895FC01538D448D252F30E0842F90E0C4
:100A6000821B930B541710F0CF96089501970895A9
:100A7000FC01918D828D981761F0A28DAE0FBF2F72
:100A8000B11D5D968C91928D9F5F9F73928F90E0C8
:100A900008958FEF9FEF0895FC01918D828D981737
:100AA00031F0828DE80FF11D858D90E008958FEF74
:100AB0009FEF0895FC01918D228D892F90E0805C3D
:100AC0009F4F821B91098F739927089589E094E0C5
:100AD0000E945A0521E0892B09F420E0822F089515
:100AE00080E090E0892B29F00E94660581110C942A
:100AF00000000895FC01A48DA80FB92FB11DA35AC1
:100B0000BF4F2C91848D90E001968F739927848F2D
:100B1000A689B7892C93A089B1898C918370806450
:100B20008C93938D848D981306C00288F389E02DF1
:100B300080818F7D80830895EF92FF920F931F93A2
:100B4000CF93DF93EC0181E0888F9B8D8C8D981380
:100B50001AC0E889F989808185FF15C09FB7F8948C
:100B6000EE89FF896083E889F989808183708064D8
:100B700080839FBF81E090E0DF91CF911F910F9123
:100B8000FF90EF900895F62E0B8D10E00F5F1F4F32
:100B90000F731127E02E8C8D8E110CC00FB607FC41
:100BA000FACFE889F989808185FFF5CFCE010E94CF
:100BB0007A05F1CFEB8DEC0FFD2FF11DE35AFF4FBE
:100BC000F0829FB7F8940B8FEA89FB89808180625D
:100BD000CFCFCF93DF93EC01888D8823B9F0AA891A
:100BE000BB89E889F9898C9185FD03C0808186FDE8
:100BF0000DC00FB607FCF7CF8C9185FFF2CF808137
:100C000085FFEDCFCE010E947A05E9CFDF91CF912C
:100C10000895CF93DF93EC018A859B85AC85BD85D4
:100C20008E839F83A887B9870E94F0046A837B83A1
:100C30008C839D8381E089838883DF91CF910895A0
:100C4000CF93DF93EC018E819F81A885B9858A833C
:100C50009B83AC83BD830E94F0046A877B878C876B
:100C60009D8781E089838883DF91CF9108952091CA
:100C7000A102260F3327331F21323105ECF42091D6
:100C8000C702FC0190E080E0243069F082E0089522
:100C9000A091A1022191AC0141585D4FA40FB52F45
:100CA000B11D2C930196861798F38091A102680FCD
:100CB0006093A10280E0089581E008951092C70238
:100CC00081E08093C9021092C80261E082E10E9433
:100CD000B70361E083E10E94B703E9EBF0E08081B4
:100CE0008E7F808380818D7F808388E48093B800AD
:100CF00085E48093BC000895CF93DF9391E09093B7
:100D00007E028823B9F0C091B800D091BA008091DA
:100D1000BC008A7B8093BC0060E082E10E94B70344
:100D200060E083E10E94B7030E945E06D093BA00A0
:100D3000C093B800DF91CF91089508950895089564
:100D4000E091760280917502E81730F4F0E0EB5AFA
:100D5000FD4F808190E008958FEF9FEF089590916F
:100D60007602809175022FEF3FEF981748F4E92F34
:100D7000F0E0EB5AFD4F208130E09F5F90937602C8
:100D8000C90108958091750290917602891B990B93
:100D90000895CF92DF92EF92FF920F931F93CF931C
:100DA000DF937C01CB018A0120915402222389F038
:100DB000EB016B01C40ED51ECC15DD0569F0699100
:100DC000D701ED91FC910190F081E02DC7010995CB
:100DD000F3CF642F0E943706C801DF91CF911F9196
:100DE0000F91FF90EF90DF90CF900895CF93DF9316
:100DF0001F92CDB7DEB76983209154022223F9F008
:100E000020917702203258F021E030E0FC0133835A
:100E1000228390E080E00F90DF91CF910895809140
:100E20007802E82FF0E0EC5CFD4F998190838F5FB2
:100E3000809378028093770281E090E0ECCF61E0CC
:100E4000CE0101960E943706F7CFCF92DF92EF9244
:100E5000FF920F931F93CF93DF93FC01C48121E096
:100E600020935402C09333021092780210927702BA
:100E70008385682B86EA94E00E94F606D09177027B
:100E8000D13208F092C00E9499046B017C018091DC
:100E9000C702811165C082E08093C70281E0809320
:100EA000C9028FEF8093C6021092EB02D093EA0240
:100EB000A4E3B2E0EAECF2E080E0D81385C010923F
:100EC000EC028091EC02CC0FC82BC093EC02809115
:100ED000C802813009F07CC01092C8020E949904B7
:100EE0006B017C018091EC028093BB0080917A02BF
:100EF00090917B02A0917C02B0917D02892B8A2B7C
:100F00008B2B99F00E94990400917A0210917B0238
:100F100020917C0230917D026C197D098E099F0918
:100F20000617170728073907E0F18091BC0083FDF9
:100F3000D9CF85EC8093BC000E9499046B017C01A1
:100F40008091C702823009F445C08091C6028F3F6C
:100F500061F18091C602803241F18091C60225C0C4
:100F600080917A0290917B02A0917C02B0917D02E7
:100F7000892B8A2B8B2B09F48ACF0E94990400912C
:100F80007A0210917B0220917C0230917D026C19D3
:100F90007D098E099F09061717072807390708F0EA
:100FA00076CF809179020E947C061092780210928E
:100FB000770210925402DF91CF911F910F91FF9011
:100FC000EF90DF90CF9008959D9191938F5F75CFB3
:100FD00085EEB0CF80917A0290917B02A0917C0245
:100FE000B0917D02892B8A2B8B2B09F4A9CF0E940B
:100FF000990400917A0210917B0220917C02309139
:101000007D026C197D098E099F09061717072807AD
:10101000390708F095CFC5CF08952091310230915E
:1010200032022817390771F49091300280912F0213
:10103000981741F0E0913002F0E0E151FE4F8081DD
:1010400090E008958FEF9FEF0895EF92FF920F9336
:101050001F93CF93DF93DC015C96ED90FC905D973E
:10106000E114F10479F481E090E013969C938E935F
:10107000129790E080E0DF91CF911F910F91FF9048
:10108000EF9008955196ED91FC91529750968C9166
:101090005097982F90950FB75E962C915E97122FD0
:1010A000127021FD6095F8942081112319F1282BED
:1010B0002083E7012197F1F728E0462F50E03081A7
:1010C00060FF1AC0382B3083E7012197F1F7BA018E
:1010D00075956795215089F7112381F080818923C7
:1010E00080830FBF5C968D919C910197F1F781E011
:1010F00090E0C1CF2923DCCF3923E5CF9081892B24
:10110000EFCF20913102309132022817390761F474
:1011100080912F022091300290E0805C9F4F821BD3
:1011200091098F739927089590E080E008952091A8
:1011300031023091320228173907B9F49091300208
:1011400080912F02981789F0E0913002F0E0E15190
:10115000FE4F80812091300230E02F5F3F4F2F7390
:1011600033272093300290E008958FEF9FEF08958A
:10117000FC0182E691E0918380838091310290911D
:101180003202E817F90759F4A389B4899C9185893B
:10119000809589238C931092320210923102089527
:1011A000CF93DF93FC01828D938D892B41F1A09128
:1011B0003102B0913202AE17BF0709F1109751F01A
:1011C0005396CD91DC915497988155968C9180954A
:1011D00089238883868D8E7F868F10922F021092AE
:1011E0003002F0933202E0933102A389B4898C91EA
:1011F0009589892B8C9381E0DF91CF91089580E0D0
:10120000FBCFFC01138E128E118E108E178A168A58
:101210008DE991E0958F848F84858631D8F52DEB0B
:1012200030E0378B268B2BE931E0318F208F2CE299
:1012300031E0338F228F90916800883070F121E087
:101240008E3008F420E081E001C0880F2A95EAF78B
:10125000892B8093680084852DE630E0883050F03B
:101260002BE630E08E3030F02CE630E0863110F0A6
:1012700030E020E0348B238B282F30E0883078F466
:1012800091E001C0990F8A95EAF7958B848D958D31
:101290000197F1F7CF010C94D00884E0D9CF8E30BC
:1012A00040F42850310991E001C0990F2A95EAF7DE
:1012B000ECCF2E503109F7CF90E080E008950F93E6
:1012C0001F93CF938C01C62F0E9425076C2F64605B
:1012D000C8010E9425076C2F6B7FC8010E9425075B
:1012E00083EC90E00197F1F7CF911F910F91089552
:1012F0000F931F93CF93DF938C01D62FC42F607F62
:10130000642B0E945F0980E1D89FB00111246C2BEF
:10131000C801DF91CF911F910F910C945F09CF937A
:10132000DF93CDB7DEB728970FB6F894DEBF0FBEB8
:10133000CDBF98E0E6E5F1E0DE01119601900D9257
:101340009A95E1F790910C06961710F46FEF690FDC
:10135000262F30E0220F331F41E050E04C0F5D1F7D
:10136000240F351FF9016081680F606840E084E058
:1013700096E028960FB6F894DEBF0FBECDBFDF9182
:10138000CF910C94780941E00E94780981E090E0C7
:101390000895CF92DF92EF92FF920F931F93CF9316
:1013A000DF93FB0120812F3F09F0AFC08B017C014F
:1013B000D0901306C0901406609111066770F8E093
:1013C0006F9FB0011124606440E084E096E00E94C9
:1013D0007809E70188E0E80EF11C699184E096E065
:1013E0000E94C309EC16FD06C1F7D0921306C09205
:1013F00014066C2D8D2D0E948F096091110684E0DA
:1014000096E00E94C30980911106F80180838091C3
:101410001106909112060196909312068093110680
:10142000209110062817190611F00CF065C01092D3
:101430001206109211068FEF809315068093160600
:1014400080931706809318068093190680931A06D6
:1014500080931B0680931C0680931D0680931E06B6
:1014600080931F0680932006809321068093220696
:101470008093230680932406809325068093260676
:1014800080932706809328068093290680932A0656
:1014900080932B0680932C0680932D0680932E0636
:1014A00080932F0680933006809331068093320616
:1014B00080933306809334068093350680933606F6
:1014C00080933706809338068093390680933A06D6
:1014D00080933B0680933C0680933D0680933E06B6
:1014E00080933F0680934006809341068093420696
:1014F0008093430680934406DF91CF911F910F9113
:10150000FF90EF90DF90CF900895622F84E096E0F7
:10151000DF91CF911F910F91FF90EF90DF90CF90CF
:101520000C94C309CF93DF9390E080E00E94542D88
:10153000C7E0D4E0888381E090E00E94542D898345
:10154000CE01DF91CF910895FB0101900020E9F7D2
:101550003197AF01461B570BDC01ED91FC910280E6
:10156000F381E02D0994BC0184E096E00C94A40A78
:101570000F931F93CF93DF938C01D0E0C0E06115F0
:10158000710519F00E94A40AEC0160EA71E0C8013B
:101590000E94A40A8C0F9D1FDF91CF911F910F9184
:1015A00008954F925F926F927F928F929F92AF9227
:1015B000BF92CF92DF92EF92FF920F931F93CF9340
:1015C000DF93CDB7DEB768970FB6F894DEBF0FBED6
:1015D000CDBF7C01FC0101900020E9F731976F013C
:1015E000C81AD90A10E000E082E396E09C01990F46
:1015F000440B550B29873A874B875C878AE995E02E
:101600009C01990F440B550B2D873E874F87588BB4
:101610008AE795E09C01990F440B550B298B3A8B77
:101620004B8B5C8B8AE695E09C01990F440B550B24
:101630002D8B3E8B4F8B588F82E795E04C01990F95
:10164000AA08BB0882E695E02C01990F6608770886
:101650000C151D050CF01AC4F701E00FF11F608195
:10166000062E000C770BCB01807C9927803C9105DE
:10167000E9F5818187FF3AC096E0660F771F9A955A
:10168000E1F7607C77708F73682B82E0080F111D83
:101690006F3234E0730709F4BAC20CF0D4C06E3173
:1016A00054E0750709F4DDC30CF071C0653124E026
:1016B000720709F4CDC3B4F5613144E0740709F44D
:1016C000ADC1B4F4613084E0780709F4C1C360317E
:1016D00024E0720709F4B7C3603B710509F051C0FB
:1016E0006FED84E096E00E94C309AAC181E0CECFED
:1016F000633134E0730709F4A9C183EA91E06431EE
:1017000074400CF4A2C342EC56E028E030E0052E11
:10171000000C660B770BCE0101960E94F21967E16F
:1017200076E08AC1693154E0750709F4BCC1B4F4AC
:10173000673124E0720709F4A7C10CF496C14AEAA4
:1017400056E028E030E0052E000C660B770BCE014A
:1017500001960E94F2196AE176E06EC16B3144E0B5
:10176000740709F4AFC10CF476C36C3184E07807D8
:1017700009F474C389EA91E06D3124E0720709F439
:1017800064C341E084E096E00E94780959C1663262
:1017900034E0730709F4D2C1D4F4623254E075071F
:1017A00009F465C354F4603224E0720709F45CC3A1
:1017B0000CF497C18CEC91E048C3643244E07407A8
:1017C00009F4ADC10CF49CC181EB91E03EC36A32D7
:1017D00084E0780709F4DFC1B4F4683234E07307B9
:1017E00009F4CAC10CF4B9C142E656E028E030E081
:1017F000052E000C660B770BCE0101960E94F219A4
:1018000063E276E019C16C3254E0750709F4E1C176
:101810000CF4D0C16D3224E0720709F4E9C16E32D4
:1018200034E0730709F0ADCF4AE356E028E030E03A
:10183000052E000C660B770BCE0101960E94F21963
:1018400068E276E0F9C0603444E0740709F41BC331
:101850000CF074C0673384E0780709F412C294F581
:10186000633334E0730709F4EEC1B4F4613354E038
:10187000750709F4D9C10CF4FDC242E256E028E034
:1018800030E0052E000C660B770BCE0101960E940E
:10189000F2196BE276E0D0C0653324E0720709F4F8
:1018A000ECC20CF4DFC142E056E028E030E0052E47
:1018B000000C660B770BCE0101960E94F2196FE2C5
:1018C00076E0BAC06B3344E0740709F407C2B4F49D
:1018D000693384E0780709F4F2C10CF4E1C142EE07
:1018E00055E028E030E0052E000C660B770BCE01AA
:1018F00001960E94F21963E376E09EC06D3334E0F6
:10190000730709F409C20CF4F8C16E3354E075078B
:1019100009F4B6C26F3384E0780709F032CF42ECA5
:1019200055E028E030E0052E000C660B770BCE0169
:1019300001960E94F21967E376E07EC0683424E0E5
:10194000720709F425C274F5643444E0740709F49D
:1019500001C274F4623484E0780709F4ECC18BEBC3
:1019600091E0633474400CF470C28DEB91E06DC271
:10197000663434E0730709F4FCC18FEB91E06734FF
:1019800074400CF462C242EA55E028E030E0052ED3
:10199000000C660B770BCE0101960E94F2196CE3E6
:1019A00076E04AC06C3454E0750709F41CC2B4F404
:1019B0006A3424E0720709F407C20CF4F6C142E865
:1019C00055E028E030E0052E000C660B770BCE01C9
:1019D00001960E94F21960E476E02EC06E3444E075
:1019E000740709F418C20CF40BC26F3484E0780752
:1019F00009F41EC2613524E0720709F0C2CE4AE044
:101A000056E028E030E0052E000C660B770BCE0187
:101A100001960E94F2196EE276E00EC042ED56E0A9
:101A200028E030E0052E000C660B770BCE01019606
:101A30000E94F21965E176E0CE0101960E94C90983
:101A4000809113068F5F8093130602CE4AEC56E016
:101A500028E030E0052E000C660B770BCE010196D6
:101A60000E94F21966E176E0E7CF4AEB56E028E003
:101A700030E0052E000C660B770BCE0101960E941C
:101A8000F21968E176E0D8CF42EB56E028E030E08A
:101A9000052E000C660B770BCE0101960E94F21901
:101AA00069E176E0C9CF42EA56E028E030E0052E51
:101AB000000C660B770BCE0101960E94F2196BE1C8
:101AC00076E0BACF4AE956E028E030E0052E000C77
:101AD000660B770BCE0101960E94F2196CE176E05D
:101AE000ABCF42E956E028E030E0052E000C660B53
:101AF000770BCE0101960E94F2196DE176E09CCF42
:101B00004AE856E028E030E0052E000C660B770B23
:101B1000CE0101960E94F2196EE176E08DCF42E887
:101B200056E028E030E0052E000C660B770BCE0166
:101B300001960E94F2196FE176E07ECF4AE756E007
:101B400028E030E0052E000C660B770BCE010196E5
:101B50000E94F21960E276E06FCF42E756E028E09B
:101B600030E0052E000C660B770BCE0101960E942B
:101B7000F21961E276E060CF4AE656E028E030E014
:101B8000052E000C660B770BCE0101960E94F21910
:101B900062E276E051CF4AE556E028E030E0052EDB
:101BA000000C660B770BCE0101960E94F21964E2DD
:101BB00076E042CF42E556E028E030E0052E000C0A
:101BC000660B770BCE0101960E94F21965E276E072
:101BD00033CF4AE456E028E030E0052E000C660BD7
:101BE000770BCE0101960E94F21966E276E024CFCF
:101BF00042E456E028E030E0052E000C660B770B3F
:101C0000CE0101960E94F21967E276E015CF28E036
:101C100030E049855A856B857C85CE0101960E940E
:101C2000F21969E276E008CF4AE256E028E030E0B7
:101C3000052E000C660B770BCE0101960E94F2195F
:101C40006AE276E0F9CE4AE156E028E030E0052E7F
:101C5000000C660B770BCE0101960E94F2196CE224
:101C600076E0EACE42E156E028E030E0052E000CB6
:101C7000660B770BCE0101960E94F2196DE276E0B9
:101C8000DBCE4AEF55E028E030E0052E000C660B75
:101C9000770BCE0101960E94F21960E376E0CCCE7C
:101CA00042EF55E028E030E0052E000C660B770B84
:101CB000CE0101960E94F21961E376E0BDCE4AEEB4
:101CC00055E028E030E0052E000C660B770BCE01C6
:101CD00001960E94F21962E376E0AECE4AED55E03D
:101CE00028E030E0052E000C660B770BCE01019644
:101CF0000E94F21964E376E09FCE42ED55E028E0C1
:101D000030E0052E000C660B770BCE0101960E9489
:101D1000F21965E376E090CE4AEC55E028E030E039
:101D2000052E000C660B770BCE0101960E94F2196E
:101D300066E376E081CE4AEB55E028E030E0052E00
:101D4000000C660B770BCE0101960E94F21968E336
:101D500076E072CE42EB55E028E030E0052E000C34
:101D6000660B770BCE0101960E94F2196AE376E0CA
:101D700063CE4AEA55E028E030E0052E000C660B01
:101D8000770BCE0101960E94F2196BE376E054CEF8
:101D900028E030E04D855E856F857889CE0101961B
:101DA0000E94F2196DE376E047CE42E955E028E063
:101DB00030E0052E000C660B770BCE0101960E94D9
:101DC000F2196EE376E038CE4AE855E028E030E0DC
:101DD000052E000C660B770BCE0101960E94F219BE
:101DE0006FE376E029CE28E030E049895A896B8993
:101DF0007C89CE0101960E94F21961E476E01CCE46
:101E000028E030E0B501A401CE0101960E94F2194C
:101E100062E476E011CE28E030E04D895E896F897A
:101E2000788DCE0101960E94F21963E476E004CE2B
:101E300028E030E0B301A201CE0101960E94F21920
:101E400064E476E0F9CD80ED91E00E94B30AF8CD2C
:101E500085EA91E0FACF82EC91E0F7CF87EA91E052
:101E6000F4CF8BEA91E0F1CF8DEA91E0EECF8FEAEB
:101E700091E0EBCF83EB91E0E8CF85EB91E0E5CF0C
:101E800087EB91E0E2CF89EB91E0DFCF68960FB668
:101E9000F894DEBF0FBECDBFDF91CF911F910F91A0
:101EA000FF90EF90DF90CF90BF90AF909F908F907A
:101EB0007F906F905F904F900895E6EFF2E022E2FE
:101EC000DF011D922A95E9F7BC01CF010E948C2900
:101ED00086EF92E008952F923F924F925F926F9219
:101EE0007F928F929F92AF92BF92CF92DF92EF92AA
:101EF000FF920F931F93CF93DF93D82FC92F8B019E
:101F00000E94242924E630E040E050E00E94953011
:101F100049019B01AC0160E876E988E990E00E9404
:101F200085306B017C01F80191828082ED2FFC2FBE
:101F30002191822F022E000C990BC0970A97C0F3B3
:101F40002E3239F51F0180E8882E86E9982E88E91F
:101F5000A82EB12C9AE0492E512C612C712CF10144
:101F6000C1911F010C2E000CDD0BE097CA30D1058A
:101F700080F4C501B401A30192010E94953049018A
:101F80005A01DE010E94BD30C60ED71EE81EF91EA2
:101F9000E6CFA5E0B0E0A70196010E946A2D6F5F31
:101FA0007F4F8F4F9F4F23E030E040E050E00E9492
:101FB0009530F80122833383448355831682DF9161
:101FC000CF911F910F91FF90EF90DF90CF90BF9036
:101FD000AF909F908F907F906F905F904F903F90C9
:101FE0002F9008951F93CF93DF93EC0118811D323A
:101FF00009F42196CE010E9424299B01AC01A4E69C
:10200000B0E00E946A2DAB01BC01FE012991822F34
:10201000022E000C990BC0970A97B8F32E3231F5B7
:102020008181082E000C990BC0978A309105F0F43D
:10203000AAE0A89F9001A99F300D1124C901330F78
:10204000AA0BBB0B480F591F6A1F7B1F8281082EEA
:10205000000C990BC0978A30910540F4092E000CB2
:10206000AA0BBB0B480F591F6A1F7B1F1D3239F487
:1020700070956095509541955F4F6F4F7F4FCB01A5
:10208000BA01DF91CF911F9108950F931F93CF93C2
:10209000DF938C01BC0189E094E00E94B80A84E6D9
:1020A00096E00E94D00864EF71E080E090E00E942A
:1020B000BE0480912201882309F489C0109276021F
:1020C0001092750210927802109277020E945E06BA
:1020D0008DE996E09093A00280939F028EE996E0AE
:1020E0009093A4028093A3021092090680910E0699
:1020F000823018F098E09093090680930C0662E312
:1021000070E080E090E00E94BE0460910F0684E0E1
:1021100096E00E94250768EE73E080E090E00E9460
:10212000BE0460E384E096E00E945F09CBE4D6E45D
:10213000CE010197F1F760E384E096E00E945F0929
:102140002197F1F760E384E096E00E945F0983E560
:1021500092E00197F1F760E284E096E00E945F0967
:1021600060910906606240E084E096E00E94780990
:1021700084E080930A0640E06CE084E096E00E94F0
:10218000780940E061E084E096E00E947809CBE3C2
:10219000DFE1CE010197F1F782E080930B0640E08A
:1021A00066E084E096E00E94780940E062E084E026
:1021B00096E00E9478092197F1F788E080930F0656
:1021C00060E084E096E00E94250710922201C1E2BF
:1021D000E0E0F1E0DF018C2F1D928A95E9F741E202
:1021E00050E063E271E0CF010E94FC3110921306CF
:1021F0001092140660E080E00E948F0980E091E078
:102200000E94D10AE3E2F1E0DF011D92CA95E9F7ED
:1022100041E250E0B801CF010E94FC311092130658
:1022200081E08093140661E080E00E948F0983E2E0
:1022300091E00E94D10A64EF71E080E090E00E949A
:10224000BE0485E496E0DF91CF911F910F910C942D
:10225000D0080F931F93CF93DF93EC018B01CB0139
:102260000E94B831815691098A31910508F05EC00B
:10227000FC01E35CFE4E0C94B730571196116C11C3
:10228000701196119611961196119611961196113C
:1022900077119611961196117B11961196117F1157
:1022A00096118311961187118B1196118F11CE0102
:1022B0000E948F31EC01C8010E949031892B31F4CA
:1022C00091E080E0CD2BB9F5C92FD82FCE01DF9159
:1022D000CF911F910F910895CE010E94A331EACFB3
:1022E000E09791E080E02A97F0F090E01CC0CE01EA
:1022F0000E949031DFCFCE010E94AB31DBCFCE0107
:102300000E94142CD7CFCE010E948C31D3CFCE01A6
:102310000E948231CFCFCE010E949731CBCF91E086
:1023200080E0CD2B11F7C92FD82FC5CF91E080E0E9
:102330000C171D0749F290E0C7CFCF92DF92EF92C2
:10234000FF920F931F93CF93DF938C01FB017A01D0
:102350008181C1E0D0E08E3519F43196D0E0C0E043
:102360009F012F5F3F4F2E153F0580F581816281D0
:102370008532A1F46F0142E0C40ED11C70E0C801A7
:102380000E942911892BD9F0CE01DF91CF911F91A5
:102390000F91FF90EF90DF90CF90089590E06D3215
:1023A00081F46F0143E0C40ED11CCE14DF0448F465
:1023B0000817190724F08381801711062CF7F601FE
:1023C000CFCF0817190701F36901F9CF81E0C827BA
:1023D000DBCFFC01DB013C913E32A1F03B3539F013
:1023E000353249F411966C9170E00C9429114150EA
:1023F00051090C949D1181E090E03E171F0621F0D9
:1024000080E0089581E090E00895682F880F770BB1
:1024100080EF93E00E946B29DC01FC0131968C91E6
:10242000853221F08B3561F0CF01089511968C91A2
:102430001197FD0132968111F7CF8DEF0E940512A1
:1024400011968C9111978E3511F4FD013296808191
:10245000811102C08CEFF2CFDF011196918185329C
:1024600011F4911111968C91FD018D3581F7319602
:10247000DBCF8F929F92AF92BF92CF92DF92EF927B
:10248000FF920F931F93CF93DF938B01EC01F80121
:102490008081853209F4B0C054F5882309F48FC0D7
:1024A000843209F447C1C8010E940C127C0180915A
:1024B000BB049091BC04C817D90748F48881A701D0
:1024C000B80190E00E94E91121E0892B09F420E095
:1024D000F70180818B3209F482C10CF037C18A3256
:1024E00009F46CC1222309F4BAC02196D2C0883203
:1024F000A1F18932C1F6B8016F5F7F4FE091C1044D
:10250000F091C204CF010197EE0FFF1FEE0FFF1FE6
:10251000EA54FB4F97FD6EC03497E784F0882FEFA5
:10252000E216F20609F064C0880F991F880F991F00
:102530008C010A541B4FF801858596859E01281B46
:10254000390B308B2787CE010E943912EC01892B81
:10255000B1F5F801F08AE78632C08091C10490910C
:10256000C2044181FC01EE0FFF1FEE0FFF1F9C0113
:102570002F5F3F4FB801493281F56E5F7F4F8097E3
:102580001CF08AEF0E940512EA54FB4FD687C587DC
:102590008EEF9FEF908B87873093C2042093C10406
:1025A000CE010E943912EC01892B49F48091C104BB
:1025B0009091C20401979093C2048093C104CE010C
:1025C000DF91CF911F910F91FF90EF90DF90CF900F
:1025D000BF90AF909F908F9008956F5F7F4F8097CF
:1025E00084F6EA54FB4FD687C5878FEF9FEFD2CF93
:1025F000019790CF8EEFC6CF8181823629F1863642
:1026000009F44EC090E09C01205331092A30310575
:1026100008F049CFC19797FD15C02091C1043091B2
:10262000C2048217930774F4880F991F880F991FAB
:10263000FC01EA54FB4FE784F0882FEFE216F20624
:1026400009F05BC08FEF9ECF2281222319F03381E6
:10265000311102C08BEF96CF8881281719F0D0E096
:10266000C0E0ADCFE091BB04F091BC0481E090E00C
:10267000AE014F5F5F4F4E175F0788F769813613D2
:102680000AC0019759F4229651F37801F4E0EF0E55
:10269000F11C8701FCCE261301C00196EA01E8CFA8
:1026A000680122E0C20ED11C82818B3511F089EFC6
:1026B00069CFC6010E940C127C018091B7049091F1
:1026C000B804C817D907B9F0FE0131978081870196
:1026D00001501109A801B60190E00E949D11892BBB
:1026E00009F0BDCF8881A801B60190E00E949D113C
:1026F000892B79F6B4CF80E0EACF8091BB0490912A
:10270000BC048C1B9D0B8E159F0508F4A8CFA70158
:10271000BE01858596850E94C031892B09F09FCF27
:10272000CE0DDF1D209709F49ACF780132E0E30E39
:10273000F11CAFCF81818111B6CE8091BB04909105
:10274000BC04C817D90709F43ACF89CF8D3299F064
:102750008F3309F0C7CE3FEFE31AF30A222309F4BF
:1027600098CFB701CE0101960E943912009709F463
:1027700090CFEC0124CF4E015701FFEFAF1ABF0AF3
:102780006401B501C4010E943912EC01892B09F0E2
:1027900016CF8091BB049091BC048816990608F06E
:1027A0005ECF8FEF881A980AF6018081A701B801E1
:1027B00090E00E94E911892B19F751CFA701B801C8
:1027C000CE01DF91CF911F910F91FF90EF90DF909D
:1027D000CF90BF90AF909F908F900C94F7132223CF
:1027E00009F43DCFA701B801CE010196EACF8F923F
:1027F0009F92AF92BF92CF92DF92EF92FF920F9390
:102800001F93CF93DF937C016B014A01A090BB041F
:10281000B090BC04EC018E010E191F09FE01CA150F
:10282000DB0548F421968081A401B60190E00E9466
:10283000E911892B81F72FEF821A920AB401C7019F
:10284000800F911F0E943912009719F4015011094D
:10285000A8F7DF91CF911F910F91FF90EF90DF903C
:10286000CF90BF90AF909F908F900895AF92BF92FE
:10287000DF92EF92FF920F931F93CF93DF9300D0DD
:10288000CDB7DEB79A83898380EF93E00E944B290E
:10289000D82E882379F08093B6048D2D0F900F9059
:1028A000DF91CF911F910F91FF90EF90DF90BF903C
:1028B000AF900895E6EBF4E0018112810115110556
:1028C00019F488EF0E94051283819481E981FA81CD
:1028D0002081B12CA12C2E3531F43196FA83E98375
:1028E000AA24A394B12C800F911F9093BC048093D1
:1028F000BB0486EBE82E84E0F82EF70114861386DD
:1029000069817A81C8010E943912009799F0F70114
:1029100021813281A801421B530B50874783801BC2
:10292000910B9287818781E08083DD24D394B5CF9A
:102930008C01E3CFC8010196F7012581368102178A
:10294000130718F4A114B10499F31092B604A5CF9B
:10295000E8EEF3E028E0DF011D922A95E9F7EEE3C7
:10296000F3E0DF010D900020E9F79D012F53334084
:10297000F093B804E093B7043093BA042093B904F9
:102980001092B6040E9436141816F4F48091BD0417
:102990009091BE042091BF043091C004280F391FCC
:1029A000DC01A25CBC4FE8EEF3E0885E9340AC0132
:1029B0004E0F5F1F4217530718F44D914193F7CF05
:1029C00088EE93E00C94062990E080E0089585ED70
:1029D0008093BC0080917A0290917B02A0917C024E
:1029E000B0917D020796A11DB11D23E0B695A79574
:1029F000979587952A95D1F72091BC0024FD03C0B7
:102A00001092C702089540917A0250917B02609122
:102A10007C0270917D02452B462B472B69F3009772
:102A2000A105B10541F02AE22A95F1F700C001970E
:102A3000A109B109E1CF809179020C947C068F92B3
:102A40009F92AF92BF92CF92DF92EF92FF92CF937D
:102A50006C0182E08093EE0164E670E080E090E03B
:102A60000E94BE040E94F0044B015C0185E496E0E4
:102A70000E948108181619062CF485E496E00E943D
:102A80009708F4CF6EE373E085E496E00E94B80AFD
:102A9000EEE3F3E08AEADF011D928A95E9F7C0E0F0
:102AA000F12CE12C85E496E00E948108892B49F104
:102AB00085E496E00E949708EC2FF0E0E25CFC4F82
:102AC0008083CF5FCA3AE8F081E08093EE01809185
:102AD0004601882331F06EE373E089E094E00E94C0
:102AE000B80A8091EE01813031F1CC2321F185E4E7
:102AF00096E00E948108892BA1F084E08093EE018A
:102B00001AC08091EE01823011F70E94F00468191A
:102B100079098A099B096C157D058E059F0510F2C0
:102B2000D6CF61EC71E08EE393E00E940B32892BEB
:102B3000C1F01092EE018091EE018130A1F480E7A6
:102B400092E00E945D0F0E9445108091EE01CF91AE
:102B5000FF90EF90DF90CF90BF90AF909F908F90BD
:102B6000089583E0CBCF823019F48DE592E0E9CF70
:102B7000833019F484E392E0E4CF843031F788E4C1
:102B800092E0DFCFCF93DF93EB01EEE3F3E02AEAAD
:102B9000DF011D922A95E9F7BC01CF010E94972918
:102BA000CE01DF91CF910C941F15CF92DF92EF925F
:102BB000FF920F931F93CF93DF93CDB7DEB7A1970B
:102BC0000FB6F894DEBF0FBECDBF382FE4EEF1E0B4
:102BD0008AE0DF011D928A95E9F7832F6115BAEC2F
:102BE0007B07BAE98B07BBE39B0720F06FEF79EC1B
:102BF0008AE99BE32AE0FE0131967F01AF010E9442
:102C0000BB29F70101900020E9F731978F010E19D8
:102C10001F09B8016F5F7F4F90E080E00E94C530D0
:102C20006C01009741F0DC011C92B7010E94F53164
:102C300001151105C9F41092E401C114D10419F071
:102C4000C6010E947D2884EE91E0A1960FB6F8940B
:102C5000DEBF0FBECDBFDF91CF911F910F91FF90CF
:102C6000EF90DF90CF9008950930110510F009E042
:102C700010E0A801B60184EE91E00E94FC31F80159
:102C8000EC51FE4F1082DCCF4F925F926F927F9299
:102C90008F929F92AF92BF92CF92DF92EF92FF926C
:102CA00082ED93E00E945D0F0E94451080904705E1
:102CB00090904805A0904905B0904A05C090430502
:102CC000D0904405E0904505F090460540903003D3
:102CD00050903103609032037090330364EF71E0E1
:102CE00080EA93E00E94C2158111A7C064EF71E0F1
:102CF00082E893E00E94C21581119FC060ED77E0E9
:102D000085E793E00E94C215811188C064EF71E0ED
:102D10008CE593E00E94C21564EF71E088E493E0D3
:102D20000E94C215811189C0EEE3F3E08AEADF0157
:102D30001D928A95E9F764E173E0CF010E948C2926
:102D4000C301B2010E94D515BC018EE393E00E943D
:102D5000D63165EE72E08EE393E00E948C2920E08C
:102D600034E244E759E4C501B4010E94932C0E9467
:102D7000182F0E94D515BC018EE393E00E94D63136
:102D800069ED72E08EE393E00E948C2920E034E24A
:102D900044E759E4C701B6010E94932C0E94182F02
:102DA0000E94D515BC018EE393E00E94D6316EEBF4
:102DB00072E08EE393E00E948C2984EC99E00E94FB
:102DC0001F1564EF71E08EEA92E00E94C2158BE954
:102DD00092E00E945D0F0E94451068E873E180E078
:102DE00090E00E94BE0464EC79E08FE892E00E94DB
:102DF000C21564EF71E083E892E00E94C21564EFAF
:102E000071E088E693E00E94C215811116C08EEB36
:102E100093E00E945D0F0E9445100FC06CED75E0BD
:102E200088E693E00E94C21560ED77E085E793E0C5
:102E30000E94C215882309F469CF0E94F0046093B0
:102E4000B2047093B3048093B4049093B504FF90DC
:102E5000EF90DF90CF90BF90AF909F908F907F903A
:102E60006F905F904F900895CF92DF92EF92FF9214
:102E7000CF936B017C01C42FE6EFF2E082E2DF0129
:102E80001D928A95E9F767E272E0CF010E948C29D2
:102E9000C701B6010E94D515BC0186EF92E00E94E1
:102EA000D6316BE172E0C11102C061E272E086EFDF
:102EB00092E00E948C2986EF92E0CF91FF90EF90F4
:102EC000DF90CF900895CF93DF9300D0CDB7DEB7DA
:102ED000E6EFF2E082E2DF011D928A95E9F760E118
:102EE00072E0CF010E948C292091830630918406E4
:102EF000CE01019621153105F1F4875896409A8349
:102F0000898369817A81072E000C880B990B0E94B6
:102F1000D515BC0186EF92E00E94D63168E072E0E0
:102F200086EF92E00E948C2986EF92E00F900F903E
:102F3000DF91CF910895821B930BE1CF1F920F92E7
:102F40000FB60F9211242F933F938F939F93AF93BC
:102F5000BF938091360390913703A0913803B091CD
:102F600039033091350323E0230F2D3758F50196AF
:102F7000A11DB11D20933503809336039093370331
:102F8000A0933803B093390380913A0390913B03A7
:102F9000A0913C03B0913D030196A11DB11D80930A
:102FA0003A0390933B03A0933C03B0933D03BF913E
:102FB000AF919F918F913F912F910F900FBE0F90E6
:102FC0001F90189526E8230F0296A11DB11DD2CFA0
:102FD0001F920F920FB60F9211242F933F934F938E
:102FE0005F936F937F938F939F93AF93BF93EF9371
:102FF000FF9389E094E00E947A05FF91EF91BF91E1
:10300000AF919F918F917F916F915F914F913F9180
:103010002F910F900FBE0F901F9018951F920F9237
:103020000FB60F9211242F938F939F93EF93FF93DB
:10303000E0911904F0911A048081E0911F04F0914D
:10304000200482FD1BC09081809122048F5F8F73CA
:1030500020912304821741F0E0912204F0E0E75F21
:10306000FB4F958F80932204FF91EF919F918F9159
:103070002F910F900FBE0F901F9018958081F4CF65
:103080001F920F920FB60F9211242F933F934F93DD
:103090005F936F937F938F939F93AF93BF93EF93C0
:1030A000FF938091B900887F803609F44AC0F0F51B
:1030B000883209F4A7C018F5803109F49BC0B8F430
:1030C000882309F4F9C0883009F494C0FF91EF9186
:1030D000BF91AF919F918F917F916F915F914F9130
:1030E0003F912F910F900FBE0F901F901895883130
:1030F00009F488C0803251F78093C60214C080342E
:1031000009F49DC040F48033B9F38833F9F6809315
:10311000C60285ECB0C0803509F485C0883509F455
:1031200096C0883499F60E94E714D0CF883909F404
:103130008CC038F5883729F050F4883611F0803784
:1031400029F683E08093C7021092C50257C08838E1
:1031500009F47BC0803919F0803809F0B7CF80912D
:10316000C502803208F071C0E091C50281E08E0F87
:103170008093C5028091BB00F0E0EB55FD4F80834A
:103180003DC0803B39F0E0F4803A09F479C0883AD8
:1031900009F09CCF84E08093C7021092A2021092A3
:1031A000A102E0919F02F091A00209958091A102F5
:1031B00081110FC081E08093A10210927F0209C0AB
:1031C000803C09F4A6CF883C09F4A3CF883B09F0E2
:1031D0007DCFE091A20281E08E0F8093A202F0E009
:1031E000E158FD4F80818093BB009091A2028091B5
:1031F000A10229C08091EC028093BB0085EC8093F2
:10320000BC0064CF9091EB028091EA02981758F5C8
:10321000E091EB0281E08E0F8093EB02F0E0E65349
:10322000FD4F8081E9CFE091EB0281E08E0F80932A
:10323000EB028091BB00F0E0E653FD4F808390915C
:10324000EB028091EA029817C8F285E8D8CFE091A6
:10325000EB0281E08E0F8093EB028091BB00F0E0E7
:10326000E653FD4F80838091C90281115CCF81E0DC
:103270008093C80284EA8093BC001092C70226CFD4
:1032800085EC8093BC001092C7028091C502803209
:1032900030F4E091C502F0E0EB55FD4F10826091F3
:1032A000C50270E0E091A302F091A40285EA92E0E9
:1032B00009951092C5020ACF1092C60234CF1F9210
:1032C0000F920FB60F9211242F933F934F935F935A
:1032D0006F937F938F939F93AF93BF93EF93FF93DE
:1032E000E0913102F0913202309749F0A685B7851E
:1032F0008585968D91FF14C09C918923A1F4FF913F
:10330000EF91BF91AF919F918F917F916F915F915D
:103310004F913F912F910F900FBE0F901F901895D6
:103320009C91892361F7A389B4899C9185898095B3
:1033300089238C93868997890197F1F7608D718D28
:10334000A685B785558538E020E0CB010197F1F7D8
:10335000822F90E095958795282F4C91452309F071
:103360002068315091F7868D81FD209580912F0244
:1033700090E001968F73992730913002381799F0B9
:10338000A0912F02B0E0A151BE4F2C9380932F0249
:10339000828D938D0197F1F7A389B4898C919589DA
:1033A000892B8C93ACCF868D8160868FF1CF1F9255
:1033B0000F920FB60F9211248F939F93EF93FF9369
:1033C0008FB7F894E0E6F0E098E1908399E6908377
:1033D0008FBFFF91EF919F918F910F900FBE0F9034
:1033E0001F901895FA01DC0102C005900D92215042
:1033F0003040D8F70895E9E0F4E01382128288EEB5
:1034000093E0A0E0B0E084839583A683B78324E7AC
:1034100031E03183208325EC30E03587248724ECAC
:1034200030E03787268720EC30E0318B208B21EC91
:1034300030E0338B228B22EC30E0358B248B26EC72
:1034400030E0378B268B118E128E138E148EE6EAA7
:10345000F4E01382128284839583A683B78386E87F
:1034600091E0918380834DE06CE084E696E00E94D9
:10347000340448E067E085E496E00E943404E4E028
:10348000F6E01382128287E2848380E1818792E0F2
:103490009287138628E931E03183208388E084878E
:1034A000168615861786108A8FEF818B828B838B09
:1034B000848B858B868B878B808F818F828F838F88
:1034C000848F858F868F878F80A381A382A383A318
:1034D00084A385A386A387A380A781A782A783A7A8
:1034E00084A785A786A787A780AB81AB82AB83AB78
:1034F00084AB85AB86AB87AB80AF81AF82AF83AF48
:1035000084AF85AF86AF87AF80934406EFE4F5E0E4
:1035100010821182138212821482158216821782FF
:1035200010861286118613861486158616861786CF
:10353000118A108A128A138A148A158A168A108EA2
:10354000178A118E128E138E148E158E20E330E0A2
:10355000378F268F2EE430E033A322A312A613A6C2
:1035600014A615A616A617A610AE11AE12AE13AE6F
:1035700014AE15AE109295051092960510929B050B
:1035800010929C0510929D0510929E051092A30525
:103590001092A4051092A9051092AA051092AB05ED
:1035A0001092AC051092B1051092B2051092B705B9
:1035B0001092B8051092B9051092BA051092BF0585
:1035C0001092C0051092C5051092C6051092C7054D
:1035D0001092C8051092CD051092CE051092D30519
:1035E0001092D4051092D5051092D6051092DB05E5
:1035F0001092DC059093EC051092ED051092EE050B
:103600001092EF051092F1051092F0051092F3055B
:103610001092F2051092F4051092F5051092F6053D
:103620001092F7051092F8051092F9051092FA051C
:103630001092FB051092FC051092FD051092FE05FC
:103640001092FF05109200061092010610920206D9
:10365000109203061092DD050E94F00460934B0562
:1036600070934C0580934D0590934E0580914C01CD
:1036700090914D01A0914E01B0914F01809347056B
:1036800090934805A0934905B0934A05809148015D
:1036900090914901A0914A01B0914B01809343055B
:1036A00090934405A0934505B0934605E6EBF4E0FE
:1036B0001082128211820E94F0046093B20470930F
:1036C000B3048093B4049093B5040895CF93DF932B
:1036D000CDB7DEB7E0970FB6F894DEBF0FBECDBF13
:1036E000789484B5826084BD84B5816084BD85B5DD
:1036F000826085BD85B5816085BD80916E008160E9
:1037000080936E001092810080918100826080938E
:103710008100809181008160809381008091800090
:103720008160809380008091B10084608093B100BB
:103730008091B00081608093B00080917A008460B5
:1037400080937A0080917A00826080937A008091E1
:103750007A00816080937A0080917A0080688093FB
:103760007A001092C100E0911904F0911A0482E0ED
:103770008083E0911504F09116041082E091170403
:10378000F091180480E1808310922104E0911D04DF
:10379000F0911E0486E08083E0911B04F0911C04EC
:1037A000808180618083E0911B04F0911C04808102
:1037B00088608083E0911B04F0911C048081806804
:1037C0008083E0911B04F0911C0480818F7D8083B5
:1037D00084E696E00E94010985E496E00E940109D2
:1037E0001092F4021092F3020E94920A8091070450
:1037F00090910804019621F4109208041092070495
:1038000000910704109108040F5F1F4F10930804E4
:103810000093070490E080E00E94542D801729F067
:10382000602F90E080E00E945C2D1091080481E000
:1038300090E00E94542D181729F0612F81E090E04C
:103840000E945C2D81E08093F5028091F3029091BB
:10385000F40202969093F4028093F3028FB7F894E7
:1038600098E19093600099E6909360008FBF86EE98
:1038700093E00E945D0F0E9445100E9463170E9412
:1038800045106CED75E080E090E00E94BE04CE0132
:1038900001969E878D87DE011B96B88BAF873324F8
:1038A000339492E0292E89E094E00E945A05892BF6
:1038B000A9F089E094E00E9438058933910509F068
:1038C000C7C180914701882309F4D5C110924701EF
:1038D0008BE295E00E945D0F0E94451080913403B9
:1038E000882321F00E9463170E94451080914701B0
:1038F000882311F40C949A2780913003909131031E
:10390000A0913203B09133030196A11DB11D8093A4
:10391000300390933103A0933203B0933303B0E4A8
:10392000B0937C0080917A00806480937A008091CB
:103930007A0086FDFCCF6091780070917900072EA7
:10394000000C880B990B0E94342C9B01AC0160E0A9
:1039500070EC8FE794E40E949F2E20E030E040E876
:103960005FE30E94BB2D20E030E44CE156E40E946E
:10397000932C0E94C22F698F7A8F8B8F9C8FEEE5DC
:10398000E0937C0080914501882341F0109245012D
:1039900062E370E080E090E00E94BE0414E61D8EB9
:1039A0001E8E1F8E18A280917A00806C80937A0000
:1039B00080917A0086FDFCCF60917800709179004B
:1039C00090E080E00E94322C9B01AC016D8D7E8DD9
:1039D0008F8D98A10E94BC2D6D8F7E8F8F8F98A3A5
:1039E000115009F784E696E00E94D00810921F0358
:1039F00010921E03109221031092200310922303B1
:103A00001092220310922B0310922A0310922D037E
:103A100010922C0310922F0310922E031092470540
:103A2000109248051092490510924A0510924305DC
:103A300010924405109245051092460510921A0303
:103A400010921B0310921C0310921D030E94F0049D
:103A50004B015C0184E696E00E948108892B09F401
:103A600032C384E696E00E949708F82E8091F40510
:103A70009091F505A091F605B091F7050196A11D6D
:103A8000B11D8093F4059093F505A093F605B093CE
:103A9000F705F4E2FF1609F4F5C2E091EE05FF1513
:103AA0000CF406C12AE0F21619F08DE0F812F7C204
:103AB000EF3008F08BC1F0E0E352FA4F10828091B2
:103AC000DC05882309F490C12091DD05822F022EA8
:103AD000000C990B3FEB320F363008F0F6C0C79759
:103AE0008295807F9091DE05292F092E000C330BE3
:103AF0004FEB490F463008F0F0C027533109820FD1
:103B00009091DB0589134FC18091000690910106C9
:103B1000A0910206B09103060196A11DB11D8093EC
:103B2000000690930106A0930206B09303068091CD
:103B3000EF05882399F08091F8059091F905A091FF
:103B4000FA05B091FB050196A11DB11D8093F80502
:103B50009093F905A093FA05B093FB051091EC053D
:103B6000112309F4C3C0113009F044C089E795E07E
:103B70000E94200687E895E00E9420068091EF05CC
:103B80008823C1F187E0EFE5F5E0A1E5B5E001901C
:103B90000D928A95E1F787E0E6E6F5E0A8E5B5E065
:103BA00001900D928A95E1F780916F0590917005D3
:103BB00090936E0580936D058091730590917405C7
:103BC00090937205809371050E94F00460937505CF
:103BD0007093760580937705909378051093500540
:103BE00010934F0585E995E00E94090683EA95E068
:103BF0000E9409060091F2051091F30501151105C7
:103C000009F4E4C0E091F205F091F30566A177A113
:103C1000F80186A197A10E94EC31892B09F0D6C04A
:103C2000B801C80140960E94F5310E94F004D80105
:103C300090966D937D938D939C93939795963C92DC
:103C4000959794963C9294979A960D911C91D6CF05
:103C500088339105D1F480913403882389F0109240
:103C600034038CEF94E00E945D0F0E944510809118
:103C70004701811133CE3092470185E195E02ACE8C
:103C80003092340387EE94E025CE8733910511F00E
:103C90000C94AB2780914601882329F010924601AD
:103CA00084ED94E0E0CF3092460180EC94E012CEB7
:103CB0009AE2F91609F4FCCEACE2FA12F0C1809156
:103CC000DB058F258093DB05F3CE2156263018F4D3
:103CD0008755910905CFC09703CF9156963018F4B8
:103CE000275531090CCF2053310909CF87E895E0DA
:103CF0000E9420068091EF058823A1F187E0EFE57F
:103D0000F5E0A1E5B5E001900D928A95E1F787E035
:103D1000E6E6F5E0A8E5B5E001900D928A95E1F7B9
:103D200080916F059091700590936E0580936D055D
:103D3000809173059091740590937205809371053D
:103D40000E94F00460937505709376058093770563
:103D5000909378053092500530924F0581EB95E0B5
:103D60000E9409068091C9059091CA05A091CB05D2
:103D7000B091CC058093C5059093C605A093C70567
:103D8000B093C8050E94F0046093C1057093C2050A
:103D90008093C3059093C4053092C0053092BF054F
:103DA0008DEC95E025CF8091FC059091FD05A091CB
:103DB000FE05B091FF050196A11DB11D8093FC0584
:103DC0009093FD05A093FE05B093FF058091ED054E
:103DD0008F5F8093ED051092EE0581E0FAE2FF120D
:103DE00080E08093DC0536CE9091ED05911147C0BF
:103DF0008091DD05873409F03FC06091DE05062E15
:103E0000000C770B84EC91E00E94E131892BA1F149
:103E10006AEC71E08FED95E00E94EC31892B09F599
:103E20003092EC058091F0059091F1059093F305A7
:103E30008093F2050091F2051091F305011511052B
:103E400029F26DED75E0F80186A197A10E94EC3191
:103E500097FD02C00C94A127D8019A968D919C9150
:103E6000E5CF6EEC71E08FED95E00E94EC31892B8F
:103E700019F41092EC05D6CF2092EC05D3CFE09147
:103E8000EC05E23009F44BC08091DD05882309F48C
:103E900046C0B0E2EB9FF0011124E92B3197EC32E0
:103EA000F10508F03CC0E95AF04E0C94B730831F7E
:103EB000C61FCD1FD41FD71F0520132020202D2063
:103EC0008F1F8F1F8F1F8F1F8F1F8F1F8F1F8F1F82
:103ED0008F1F8F1F8F1F8F1F8F1F8F1F8F1F8F1F72
:103EE0008F1F8F1F8F1F8F1F8F1F8F1F8F1F831F6E
:103EF000BF1FC61FCD1FD41FD71FDE1FEB1FF81F0C
:103F00008F1F8F1F3A208DED95E00E94F20F609376
:103F10008D0570938E0580938F0590939005009189
:103F2000F2051091F305E090ED050115110509F476
:103F30004DCFE091F205F091F30566A177A1F8016C
:103F400086A197A10E94EC31892B09F03FCFD801BF
:103F500098962D913C918E2D90E0821793070CF44A
:103F600035CF2817390739F44FE050E06DED75E093
:103F7000C8010E94FC31F80102A513A5D4CF91E03D
:103F8000813409F090E09093EF05C9CF6FE575E0BB
:103F90008DED95E00E946B0FC2CF91E0833509F063
:103FA00090E090936505BBCF66E675E0F1CF91E0B8
:103FB000873509F090E090936C05B1CF8DED95E0D9
:103FC0000E94F20F60939F057093A0058093A10556
:103FD0009093A205A4CF8DED95E00E94F20F60931F
:103FE000AD057093AE058093AF059093B00597CF64
:103FF0008DED95E00E94242960937F0570938005E4
:1040000080938105909382058ACF91E081330CF4EF
:1040100090E09093EF05082E000C990B909370059B
:1040200080936F057CCF8DED95E00E9424296093ED
:10403000C9057093CA058093CB059093CC056FCFCB
:104040008DED95E00E94F20F6093D7057093D8052F
:104050008093D9059093DA0562CF8DED95E00E94AB
:10406000F20F6093BB057093BC058093BD059093E0
:10407000BE0555CF082E000C990B909374058093C4
:1040800073054DCF1092EE051092ED051092DB05F1
:104090002092EC051092DC051092EF05DBCCEE309F
:1040A00040F481E08E0F8093EE05F0E0E352FA4F8A
:1040B000F0828091DC058111CDCC8091DB05F82662
:1040C000F092DB05C7CC0E94F004681979098A09CF
:1040D0009B096C3474408105910508F4BBCC809138
:1040E000F4059091F505A091F605B091F705409182
:1040F000ED025091EE026091EF027091F002809318
:10410000ED029093EE02A093EF02B093F0024817F5
:1041100059076A077B0708F06CC380914F05882315
:1041200009F464C3109250056091530570915405D1
:1041300080915505909156050E94322C28E23BE66D
:104140004EE65EE40E949F2E6B017C01609151055A
:104150007091520590E080E00E94322C9B01AC01EE
:10416000C701B6010E94BC2D6D8B7E8B8F8B988F03
:1041700080915705882349F08D899E89AF89B88D34
:10418000B0588D8B9E8BAF8BB88F8D899E89AF89F0
:10419000B88D8093470590934805A0934905B09347
:1041A0004A0560915A0570915B0580915C0590917C
:1041B0005D050E94322C28E23BE64EE65EE40E945A
:1041C0009F2E6B017C01609158057091590590E01C
:1041D00080E00E94322C9B01AC01C701B6010E9415
:1041E000BC2D698B7A8B8B8B9C8B80915E05882391
:1041F00049F089899A89AB89BC89B058898B9A8B97
:10420000AB8BBC8B89899A89AB89BC898093430528
:1042100090934405A0934505B0934605209148012D
:104220003091490140914A0150914B01BC01CD01AF
:104230000E94BB2D25E33AEF4EE85CE30E94932CED
:104240006B017C010E940A306DA77EA78FA798ABF7
:10425000C701B6010E949A2E69A37AA38BA39CA3DF
:1042600025E33AEF4EE85CE36D897E898F89988D6E
:104270000E94932C4B015C0125E33AEF4EE85CE38E
:1042800060914C0170914D0180914E0190914F01D0
:104290000E94932C6B017C01C501B4010E940A307D
:1042A0006DA37EA38FA398A7C501B4010E949A2E87
:1042B0004B015C01C701B6010E940A3069A77AA7C9
:1042C0008BA79CA7C701B6010E949A2E6B017C01A7
:1042D00029A53AA54BA55CA5C501B4010E94932C64
:1042E0002B013C01A70196016DA17EA18FA198A58C
:1042F0000E94932C29A13AA14BA15CA10E94932C6E
:104300009B01AC01C301B2010E94BB2D9B01AC011A
:104310000E94932C2B013C01A70196016DA57EA55F
:104320008FA598A90E94932C9B01AC010E94932C0D
:10433000A30192010E94BC2D0E9418302B013C0168
:10434000A7019601C501B4010E94932C29A13AA1AD
:104350004BA15CA10E94932C6B017C0129A53AA57D
:104360004BA55CA56DA17EA18FA198A50E94932C61
:104370009B01AC01C701B6010E94BC2D9B01AC01A1
:10438000C301B2010E943B2E22E83DE642EC5AE412
:104390000E94932C60931A0370931B0380931C0359
:1043A00090931D038D899E89AF89B88D80934C01B0
:1043B00090934D01A0934E01B0934F0189899A8942
:1043C000AB89BC898093480190934901A0934A012D
:1043D000B0934B0180917905882309F404C21092AF
:1043E0007A05C0907B05D0907C05E0907D05F0902B
:1043F0007E05C701B60120E137E240E050E00E94AF
:10440000953030E030932B0320932A03C701B60187
:1044100024E630E040E050E00E9495306B01CA0194
:10442000B90124E630E040E050E00E9495307093FE
:104430002D0360932C0390E3C91A98EFD90AD09208
:104440002F03C0922E0380918705882309F48DC124
:1044500010928805C0908905D0908A05E0908B0560
:10446000F0908C05C701B60120E432E44FE050E043
:104470000E949530022F10E0C701B60120E137E21B
:1044800040E050E00E949530CA01B90124E630E0D6
:1044900040E050E00E949530709321036093200328
:1044A000C701B60124E630E040E050E00E949530BC
:1044B000CA01B90124E630E040E050E00E949530A6
:1044C0007093230360932203C801039688319105FA
:1044D0000CF044C190931F0380931E038091BF058D
:1044E000882351F01092C0058091C5059091C605B2
:1044F00090932503809324038091CD058823D1F0E8
:104500001092CE056091D3057091D4058091D505A8
:104510009091D6050E94342C20E030E048EC52E423
:104520000E949F2E60932603709327038093280395
:104530009093290386EFE82E82E0F82E82E1D701DE
:104540001D928A95E9F76FE474E0C7010E948C29F7
:1045500029E537E44CEB53E3698D7A8D8B8D9C8D87
:104560000E94932C298D3A8D4B8D5C8D0E94932C4B
:10457000298D3A8D4B8D5C8D0E94932C4B015C01F3
:1045800023E73FE745E759E3698D7A8D8B8D9C8D55
:104590000E94932C2BEE3FEF43E95AE30E94BC2D7F
:1045A0009B01AC01C501B4010E94BC2D9B01AC0173
:1045B00060E070E080E89FE30E949F2E23E333E9F0
:1045C00048E853E40E94BB2D08EE13E022E042E0ED
:1045D0000E94C327B801C7010E94D6316AE474E083
:1045E000C7010E948C2920E030E048EC52E46D8D38
:1045F0007E8D8F8D98A10E949F2E9B01AC016DEC4A
:104600007CEC8CE89FE30E949F2E20E030EC4FE78B
:1046100054E40E94932C22E041E00E94C327B80199
:10462000C7010E94D63168E774E0C7010E948C2957
:10463000C7010E94451068EE73E080E090E00E94A0
:10464000BE048091F502882309F4E8C000912E038E
:1046500010912F03C0902C03D0902D0380912A033A
:1046600090912B032091F3023091F4023093F202E7
:104670002093F10222E2F70111922A95E9F74C0109
:10468000092E000CAA08BB080A970CF0B5C064E715
:1046900074E0C7010E948C29C501B4010E94D515A0
:1046A000BC01C7010E94D63164E574E086EF92E058
:1046B0000E948C2946010D2C000CAA08BB08FAE0C8
:1046C000CF16D10434F464E774E086EF92E00E94E0
:1046D0008C29C501B4010E94D515BC0186EF92E07A
:1046E0000E94D63164E574E086EF92E00E948C2946
:1046F000B801110F880B990B0E94D515BC0186EFEC
:1047000092E00E94D63106EF12E06801D6010D90CA
:104710000020E9F7CD01875F92409801265F324083
:104720002817390708F070C0F801B1908F01E090A8
:10473000F302F090F402C7010E94542DB81621F044
:104740006B2DC7010E945C2D8091F3029091F402C1
:1047500001969093F4028093F302D8CF055111098A
:1047600010931F0300931E03B9CE8CE094E00E94C7
:104770005D0F0E9445100E94F00400914B051091BE
:104780004C0520914D0530914E056B017C01C01AFE
:10479000D10AE20AF30AC701B60128EE33E040E08D
:1047A00050E00E949530CA01B90141E064367105BC
:1047B0008105910588F0C701B60120E63AEE40E098
:1047C00050E00E949530CA01B90164367105810537
:1047D000910508F0AAC340E00E94341786EF92E0EA
:1047E0000E944510B8C287EF93E0C1CF83E394E005
:1047F000BECF8FE194E0BBCFC501B4010E94D515B7
:10480000BC0186EF92E04ECF1092F5028091F1024A
:104810009091F2029093F4028093F302C090F3021D
:10482000D090F402D092F202C092F1028CE0AD85F9
:10483000BE851D928A95E9F7FE0131967F010091B0
:10484000F3021091F402C8010E94542DD7018D93F8
:104850007D010F5F1F4F1093F4020093F302EF8569
:10486000F889EA17FB0759F7D092F402C092F302D5
:10487000E6EFF2E082E2DF011D928A95E9F70E94FD
:10488000920A60910704709108046031B7E27B07D7
:1048900008F471C290E080E00E94D515BC0186EF5B
:1048A00092E00E94D63162E574E086EF92E00E94C9
:1048B0008C29BE016F5F7F4F86EF92E00E94D63158
:1048C00086EF92E00E94451068EE73E080E090E091
:1048D0000E94BE04C0902603D0902703E0902803D6
:1048E000F090290320E030E0A901C701B6010E9441
:1048F000AD2F18160CF093C00091240310912503DE
:10490000101611060CF08BC0E6EFF2E082E2DF0138
:104910001D928A95E9F763E674E0CF010E948C2925
:10492000B801012E000C880B990B0A3011050CF010
:1049300058C20E94D515BC0186EF92E00E94D63184
:1049400060E674E086EF92E00E948C2920E030E07F
:1049500040EC50E4C701B6010E94AD2F1816C4F117
:1049600020E030E040E450E4C701B6010E94AD2FE2
:1049700018160CF045C220E030E040E450E4C701D6
:10498000B6010E94BB2D20E030E040E252E40E94DC
:10499000932C20E030E040E450E40E949F2E4B0135
:1049A0005C0120E030E0A9010E94AD2F20E030E062
:1049B00040E05FE387FD1FC2C501B4010E94BC2D2A
:1049C0000E94112F665F7F4F633371050CF474C230
:1049D00069E574E086EF92E00E948C2920E030E0E7
:1049E00040E251E4C701B6010E942D2C87FF13C09D
:1049F0006FE774E086EF92E00E948C2908EE13E0E6
:104A000022E041E0C701B6010E94C327B80186EF4A
:104A100092E00E94D63186EF92E00E94451068EE47
:104A200073E080E090E00E94BE04009122031091A8
:104A30002303A0902003B090210380911E03909146
:104A40001F03C0901A03D0901B03E0901C03F0904A
:104A50001D03E6EFF2E022E2DF011D922A95E9F75D
:104A60002C01092E000C660877080A972CF464E7DD
:104A700074E0CF010E948C29C301B2010E94D515B8
:104A8000BC0186EF92E00E94D63162E774E086EFC7
:104A900092E00E948C2925010B2C000C66087708F7
:104AA000BAE0AB16B10434F464E774E086EF92E048
:104AB0000E948C29C301B2010E94D515BC0186EF6A
:104AC00092E00E94D63162E774E086EF92E00E94A5
:104AD0008C294801012E000CAA08BB080A301105D8
:104AE00034F464E774E086EF92E00E948C29C501FB
:104AF000B4010E94D515BC0186EF92E00E94D63128
:104B00006FE774E086EF92E00E948C2920E030E0AD
:104B100048EC52E4C701B6010E942D2C08EE13E0C8
:104B200022E042E087FD0EC02CE53FEF49E754E468
:104B3000C701B6010E942D2C87FFD9C108EE13E0F2
:104B400021E043E0C701B6010E94C327B80186EF08
:104B500092E00E94D63168E674E086EF92E00E940F
:104B60008C2986EF92E00E94451068EE73E080E0A9
:104B700090E00E94BE04C0904305D0904405E090B0
:104B80004505F09046056091470570914805809174
:104B9000490590914A05E6EFF2E022E1DF011D921E
:104BA0002A95E9F708EE13E025E042E00E94C327CA
:104BB000B80186EF92E00E94D63166E774E086EF96
:104BC00092E00E948C2924E042E0C701B6010E94D5
:104BD000C327B80186EF92E00E94D63186EF92E0BB
:104BE0000E94451085E496E00E94D00864EF71E0D1
:104BF0008DEB94E00E94C215882309F47FC189EAF5
:104C000094E00E945D0F0E94451061E089E00E94DF
:104C1000030460E089E00E94B70368EE73E080E07F
:104C200090E00E94BE0461E089E00E94B70360ED5D
:104C300077E080E090E00E94BE0460E089E00E949E
:104C4000B70368EB7BE080E090E00E94BE040E9426
:104C5000F0046093B2047093B3048093B40490930F
:104C6000B50464EF71E082EA94E00E94C21582ED1F
:104C700091E00E94A814909319038093180364EFA5
:104C800071E08BE994E00E94C2158BED91E00E94E7
:104C9000A8147C0100911803109119031016110635
:104CA0000CF04FC0181619060CF04BC0E6EFF2E0FE
:104CB00082E1DF011D928A95E9F761E874E0CF0196
:104CC0000E948C2947010F2C000CAA08BB08BAE0EF
:104CD000EB16F10434F46FE774E086EF92E00E9483
:104CE0008C29C501B4010E94D515BC0186EF92E064
:104CF0000E94D6316AE774E086EF92E00E948C2928
:104D0000B801110F880B990B0E94342C20E030E081
:104D10004AE754E40E949F2E08EE13E022E041E0AF
:104D20000E94C327B80186EF92E00E94D63168E75F
:104D300074E086EF92E00E948C2986EF92E00E9458
:104D400045100E94F00460934B0570934C058093CE
:104D50004D0590934E05E0E0F0E0EF2B11F40C943C
:104D6000531C0E946605882311F40C944F1C0E946A
:104D700000000C944F1C6FE774E086EF92E00E94F5
:104D80008C296091070470910804683EE3E07E0777
:104D900008F080CD6FE774E086EF92E00E948C29E6
:104DA00060910704709108046436710508F072CDB3
:104DB0006FE774E086EF92E00E948C29609107040F
:104DC000709108046A30710508F064CD6FE774E0F3
:104DD00086EF92E00E948C2960910704709108048C
:104DE00059CD0E94D515BC0186EF92E00E94D631C4
:104DF0006EE574E0A7CDC501B4010E94BB2DE0CDE6
:104E000020E030E040E85FE3C701B6010E94AD2F2B
:104E100018167CF520E030E040E85FE3C701B601FA
:104E20000E94BB2D20E030E040EA50E40E94932C29
:104E300020E030E040E05FE30E94932C4B015C01F6
:104E400020E030E0A9010E94AD2F20E030E040E0FA
:104E50005FE387FD09C0C501B4010E94BC2D0E941B
:104E6000112F6B5F7F4FB0CDC501B4010E94BB2DE8
:104E7000F6CF20E030E040E450E4C701B6010E94E4
:104E8000932C4B015C0120E030E0A9010E94AD2F82
:104E900020E030E040E05FE387FD09C0C501B401D8
:104EA0000E94BC2D0E94112F6E5F7F4F8DCDC501DA
:104EB000B4010E94BB2DF6CF4B01072E000CAA08AF
:104EC000BB086A30710564F0C501B4010E94D515B4
:104ED000BC0186EF92E00E94D63166E574E07ACD9F
:104EE0006FE774E086EF92E00E948C29EDCF6CE6CC
:104EF00074E086EF92E00E948C292DCE0E94F0048F
:104F00000091B2041091B3042091B4043091B5041F
:104F1000601B710B820B930B61327F4B82409105BA
:104F200008F49FCE0E9444169CCE87E894E00E942D
:104F30005D0F54CC68EE73E080E090E00E94BE0408
:104F40000ACF892B11F40C94E61E1092F3051092EF
:104F5000F2050C94E61EC19711F00C946E1C85E4CA
:104F600096E00E94D0080E94441684E696E00E94D3
:104F7000D0080C946E1C85E496E00E94B80884E684
:104F800096E00C94B808EF920F931F93CF93DF93A2
:104F9000E80134E047FD34E1042E000C550B57FFC7
:104FA00003C0519541955109E32E022F242FAE01E4
:104FB0000E94DD29CE01DF91CF911F910F91EF90DB
:104FC00008950F931F93CF93DF938230910510F4D0
:104FD00082E090E0E0918506F091860630E020E0E6
:104FE000B0E0A0E0309799F42115310509F44AC0EA
:104FF000281B390B24303105D8F58A819B81611536
:10500000710589F1FB0193838283FE0111C0408108
:1050100051810281138148175907E0F04817590759
:1050200099F4109761F012960C93129713961C93B3
:105030003296CF01DF91CF911F910F910895009388
:10504000850610938606F4CF2115310551F04217DD
:10505000530738F0A901DB019A01BD01DF01F80116
:10506000C1CFEF01F9CF9093860680938506CDCF0F
:10507000FE01E20FF31F819391932250310939838E
:105080002883D7CF2091830630918406232B41F4C7
:10509000209152013091530130938406209383066E
:1050A00020915001309151012115310541F42DB766
:1050B0003EB74091540150915501241B350BE091AE
:1050C0008306F0918406E217F307A0F42E1B3F0B32
:1050D0002817390778F0AC014E5F5F4F241735076A
:1050E00048F04E0F5F1F50938406409383068193D0
:1050F00091939FCFF0E0E0E09CCFCF93DF930097B8
:10510000E9F0FC01329713821282A0918506B091DA
:105110008606ED0130E020E01097A1F42081318176
:10512000820F931F20918306309184062817390738
:1051300009F061C0F0938406E0938306DF91CF917C
:105140000895EA01CE17DF07E8F54A815B819E01E9
:1051500041155105B1F7E901FB83EA834991599162
:10516000C40FD51FEC17FD0761F480819181029671
:10517000840F951FE90199838883828193819B83A2
:105180008A83F0E0E0E012968D919C91139700974E
:10519000B9F52D913C911197CD010296820F931F85
:1051A00020918306309184062817390739F6309705
:1051B00051F51092860610928506B0938406A0934E
:1051C0008306BCCFD383C28340815181840F951F56
:1051D000C817D90761F44E5F5F4F88819981480FE6
:1051E000591F518340838A819B8193838283211538
:1051F000310509F0B0CFF0938606E09385069ECF87
:10520000FD01DC01C0CF13821282D7CFFC018827B9
:105210009927E89421912032E9F3293010F02E30BB
:10522000C8F32B3241F02D3239F4689404C00E9447
:10523000B329820F911D219120532A30C0F31EF40F
:10524000909581959F4F08951F93FC01992788277A
:10525000BC01E89411911032E9F3193010F01E30BE
:10526000C8F31B3251F01D3249F4689406C00E9405
:105270009E29610F711D811D911D119110531A30CE
:10528000B0F33EF490958095709561957F4F8F4F68
:105290009F4F1F910895DC012D923D924D925D929A
:1052A0006D927D928D929D92AD92BD92CD92DD9246
:1052B000ED92FD920D931D93CD93DD93FF91EF91B0
:1052C0008DB78D938EB78D938FB78D93ED93FD939F
:1052D000882799270994DC01CB0181309105811D34
:1052E0002D903D904D905D906D907D908D909D9016
:1052F000AD90BD90CD90DD90ED90FD900D911D9104
:10530000CD91DD91ED91FD910D90F894FEBF0FBE12
:10531000EDBFED91FD910994FB01DC010D900020A2
:10532000E9F7119705900D920020E1F70895FB0130
:10533000DC0105900D920020E1F70895592F482FC8
:10534000372F262F660F771F881F991F660F771F2D
:10535000881F991F620F731F841F951F660F771F89
:10536000881F991F08957AE0979F902D879F802D21
:10537000910D11240895BB27FA01A62F621771051C
:1053800081059105330B30FB66F0AA27660F771F66
:10539000881F991FAA1FA21710F0A21B63953850EF
:1053A000A9F7A05DAA3308F0A95DA19336F7B11162
:1053B000B1931082CA010C941D2CA9E0B0E0E3EE79
:1053C000F9E20C947B2D6A01F22EB02E102FFBE334
:1053D000AF2EA01608F41BE31F5F012F27E0AE01DC
:1053E0004F5F5F4F0E943C2BBC018981982F9970C1
:1053F000913009F43FC09BE2E1FC04C09E2D917006
:10540000E0FC3AC05E2D5071E82FE87083FF46C083
:1054100084E0911101C083E0EF2DE81B8F1508F0A7
:10542000E0E0D6018E2F20E2552351F1992329F097
:10543000D6019C93C60101966C0196012D5F3F4FEA
:10544000E2FE24C08EE4D6018C9391E411969C93E5
:10545000119712968C93D9018E2F90E281111BC067
:10546000E20FF32FF11D10828EEF9FEF2996ECE0F3
:105470000C94972D9DE2C6CF90E2C4CF2D9381501E
:105480008111FCCFCE0ED11CE0E0D0CF8EE6D6014C
:105490008C9391E6DBCF9D938150E0CF482F4470F1
:1054A00082FF3DC084E0911101C083E08F1510F4AC
:1054B000EF2DE81BD6018E2F20E2552309F1992309
:1054C00029F0D6019C93C60101966C0196012D5FCF
:1054D0003F4FE2FE1BC089E4D6018C938EE4119607
:1054E0008C93119786E412968C93D9018E2F90E2BB
:1054F000882309F4B5CF9D938150FACF2D93815025
:105500008111FCCFCE0ED11CE0E0D9CF89E6D601C7
:105510008C938EE611968C93119786E6E4CF9B01CF
:1055200077FF02C030E020E0A1E0B0E0911102C0BE
:10553000B0E0A0E0F9013196AE0FBF1F8B2C912C8B
:10554000BB2009F461C05401EFEFAE1ABE0AAA0DE8
:10555000BB1DFA161B0619F014F04F2D4A1B5111F2
:1055600088C0E3FC59C07601A42FB0E2A1114FC05E
:10557000C40ED11C992309F45BC040E0D6011196FA
:10558000F60190836D01552309F448C0012F060FE1
:105590009A81582F507184FF03C0913309F4015050
:1055A00010160CF047C0093008F008E0EEE2FE2EBD
:1055B0005B01A01AB10885019194819491082F3F55
:1055C000320729F4D601FC92F60131966F01621779
:1055D000730794F1021713077CF5DB01A21BB30BD1
:1055E000AA24A394B12CAC0EBD1EAA0DBB1D11960E
:1055F0008C9121503109D601119628153905F4F006
:10560000F60180836D01DBCFB12CA12CA0CFF70177
:10561000B1937F01A150AACF9111B0CFD601942FA1
:1056200050E302C05D9391509111FCCFC40ED11C88
:1056300040E0ACCF01E0BACF80E3DBCF6217730765
:1056400031F4963388F4953311F4552369F0F6015B
:105650008083FD01842F90E2811108C0A40FB11D49
:105660001C9290E080E002CF81E3F1CF91938150D2
:10567000F3CF911183CF8ACF283008F027E033276A
:10568000DA01990F311D87FD916000966105710562
:1056900039F432602E5F3D9330E32A95E1F70895A7
:1056A0009F3F30F080387105610509F03C5F3C5F39
:1056B0003D93913008F08068911DDF93CF931F9345
:1056C0000F93FF92EF92192F987F9695E92F969559
:1056D0009695E90FFF27E859FE4F99273327EE24C7
:1056E000FF24A701E70105900894079428F4360FDA
:1056F000E71EF81E491F511D660F771F881F991F4F
:105700000694A1F70590079428F4E70EF81E491FA8
:10571000561FC11D770F881F991F661F0694A1F79A
:105720000590079428F4F80E491F561FC71FD11D76
:10573000880F991F661F771F0694A1F7059007949D
:1057400020F4490F561FC71FD81F990F661F771FD8
:10575000881F0694A9F784911095177041F0D6958B
:10576000C79557954795F794E7941A95C1F7EEE0DA
:10577000F1E068941590159135916591959105909A
:105780007FE27395E118F10A430B560BC90BD00960
:10579000C0F7E10CF11E431F561FC91FD01D7EF438
:1057A000703311F48A95E6CFE894015030F0080F79
:1057B0000AF40027021708F4202F2395022F7A33CA
:1057C00028F079E37D932A95E9F710C07D932A9517
:1057D00089F6069497956795379517951794E1186C
:1057E000F10A430B560BC90BD00998F023957E9113
:1057F00073957A3308F070E37C932013B8F77E91A9
:1058000070617D9330F0839571E37D9370E32A9509
:10581000E1F71124EF90FF900F911F91CF91DF914D
:10582000992787FD9095089591110C94002D803251
:1058300019F089508550C8F70895DC01FC01672FE5
:1058400071917723E1F7329704C07C916D93708357
:105850006291AE17BF07C8F308950E946F2C08F439
:1058600081E00895E89409C097FB3EF490958095F7
:10587000709561957F4F8F4F9F4F9923A9F0F92F16
:1058800096E9BB279395F695879577956795B79594
:10589000F111F8CFFAF4BB0F11F460FF1BC06F5F7A
:1058A0007F4F8F4F9F4F16C0882311F096E911C08C
:1058B000772321F09EE8872F762F05C0662371F0AD
:1058C00096E8862F70E060E02AF09A95660F771FC1
:1058D000881FDAF7880F9695879597F90895990F9D
:1058E0000008550FAA0BE0E8FEEF16161706E807AA
:1058F000F907C0F012161306E407F50798F0621BCB
:10590000730B840B950B39F40A2661F0232B242B9F
:10591000252B21F408950A2609F4A140A6958FEFBE
:10592000811D811D08950E94A62C0C941A2D0E94A1
:105930000C2D38F00E94132D20F0952311F00C94BB
:10594000032D0C94092D11240C944E2D0E942B2D07
:1059500070F3959FC1F3950F50E0551F629FF001C2
:10596000729FBB27F00DB11D639FAA27F00DB11DDB
:10597000AA1F649F6627B00DA11D661F829F222764
:10598000B00DA11D621F739FB00DA11D621F839FEB
:10599000A00D611D221F749F3327A00D611D231FC1
:1059A000849F600D211D822F762F6A2F11249F570F
:1059B00050409AF0F1F088234AF0EE0FFF1FBB1F12
:1059C000661F771F881F91505040A9F79E3F5105D1
:1059D00080F00C94032D0C944E2D5F3FE4F3983E21
:1059E000D4F3869577956795B795F795E7959F5F7B
:1059F000C1F7FE2B880F911D9695879597F908950D
:105A000099278827089597F99F6780E870E060E0FC
:105A100008959FEF80EC089500240A941616170647
:105A200018060906089500240A941216130614068F
:105A300005060895092E0394000C11F4882352F0F2
:105A4000BB0F40F4BF2B11F460FF04C06F5F7F4FAA
:105A50008F4F9F4F089557FD9058440F551F59F091
:105A60005F3F71F04795880F97FB991F61F09F3F4B
:105A700079F087950895121613061406551FF2CF74
:105A80004695F1DF08C0161617061806991FF1CFC4
:105A900086957105610508940895E894BB276627EB
:105AA0007727CB0197F90895F999FECF92BD81BD73
:105AB000F89A992780B50895262FF999FECF1FBA35
:105AC00092BD81BD20BD0FB6F894FA9AF99A0FBE27
:105AD000019608950E94AC2DA59F900DB49F900D46
